:200000000C9462000C948A000C948A000C948A000C948A000C948A000C948A000C948A00B8
:200020000C948A000C948A000C948A000C948A000C948A000C948A000C948A000C948A0070
:200040000C948F060C948A000C945D060C9437060C948A000C948A000C948A000C948A00B9
:200060000C948A000C948A0000000000240027002A0000000000250028002B00000000003F
:20008000230026002900040404040404040402020202020203030303030301020408102071
:2000A0004080010204081020010204081020000000080002010000030407000000000000E9
:2000C0000000D90611241FBECFEFD8E0DEBFCDBF11E0A0E0B1E0E2E1F2E102C005900D9202
:2000E000A63FB107D9F723E0A6EFB1E001C01D92A332B207E1F710E0C2E6D0E004C02197D0
:20010000FE010E94F308C136D107C9F70E9492070C9407090C94000096E0899FD001112485
:20012000A456BD4F90967C936E935F9791E091969C93919790910803E0910903F0910A0367
:20014000992339F0309751F0811108C08091B80204C0309719F05C968C9109940895CF924F
:20016000DF92EF92FF920F931F9396E0899FF0011124E456FD4F11A2278D30A1213031059F
:2001800039F158F02230310509F447C02330310509F04FC060E070E044C0662309F449C0AD
:2001A00061E070E00E948C002FB7F8948091FB019091FC01A091FD01B091FE012FBF809373
:2001C000F4029093F502A093F602B093F70231C09FB7F894C090FB01D090FC01E090FD01BE
:2001E000F090FE019FBF0091F4021091F5022091F6023091F702C01AD10AE20AF30A009171
:2002000006031091070320E030E00C151D052E053F0518F462E070E004C061110AC063E07F
:2002200070E01F910F91FF90EF90DF90CF900C948C001F910F91FF90EF90DF90CF9008954D
:20024000CF92DF92EF92FF920F931F93CF93DF936C017A018B01C0E0D0E0CE15DF0581F096
:20026000D8016D918D01D601ED91FC910190F081E02DC6010995892B11F02196EECF7E011B
:20028000C701DF91CF911F910F91FF90EF90DF90CF900895FC01538D448D252F30E0842F38
:2002A00090E0821B930B541710F0CF96089501970895FC01918D828D981761F0828DDF01D8
:2002C000A80FB11D5D968C91928D9F5F9F73928F90E008958FEF9FEF0895FC01918D828D59
:2002E000981731F0828DE80FF11D858D90E008958FEF9FEF0895FC01918D228D892F90E060
:20030000805C9F4F821B91098F73992708958FEF91E00E947B0121E0892B09F420E0822F0D
:200320000895FC01848DDF01A80FB11DA35ABF4F2C91848D90E001968F739927848FA689C9
:20034000B7892C93A089B1898C91837080648C93938D848D981306C00288F389E02D808172
:200360008F7D80830895EF92FF920F931F93CF93DF93EC0181E0888F9B8D8C8D981305C081
:20038000E889F989808185FD26C0F62E0B8D10E00F5F1F4F0F731127E02E8C8DE8120CC0D2
:2003A0000FB607FCFACFE889F989808185FFF5CFCE010E949101F1CF8B8DFE01E80FF11D91
:2003C000E35AFF4FF0829FB7F8940B8FEA89FB89808180620AC09FB7F894EE89FF8960833C
:2003E000E889F98980818370806480839FBF81E090E0DF91CF911F910F91FF90EF90089535
:20040000CF93DF93EC01888D8823C9F0EA89FB89808185FD05C0A889B9898C9186FD0FC081
:200420000FB607FCF5CF808185FFF2CFA889B9898C9185FFEDCFCE010E949101E7CFDF91F1
:20044000CF91089580E090E0892B29F00E94870181110C9400000895833081F028F4813018
:2004600099F08230A1F008958730A9F08830B9F08430D1F4809180008F7D03C080918000F8
:200480008F7780938000089584B58F7702C084B58F7D84BD08958091B0008F7703C0809167
:2004A000B0008F7D8093B0000895CF93DF93282F30E0F901E255FF4F8491F901E656FF4FCD
:2004C000D491F901EA57FF4FC491CC2391F081110E942C02EC2FF0E0EE0FFF1FE458FF4F77
:2004E000A591B491EC91ED2381E090E021F480E002C080E090E0DF91CF910895862F0C945A
:2005000055021F93CF93DF93282F30E0F901E255FF4F8491F901E656FF4FD491F901EA57DF
:20052000FF4FC491CC23C1F0162F81110E942C02EC2FF0E0EE0FFF1FEE58FF4FA591B491BC
:200540009FB7F894111104C08C91D095D82302C0EC91DE2BDC939FBFDF91CF911F91089524
:20056000862F642F0C948102CF93DF9390E0FC01E656FF4F2491FC01EA57FF4F8491882344
:2005800061F190E0880F991FFC01E859FF4FC591D491FC01EE58FF4FA591B491611109C0BC
:2005A0009FB7F8948881209582238883EC912E230BC0623061F49FB7F8948881322F30955A
:2005C00083238883EC912E2B2C939FBF06C08FB7F894E8812E2B28838FBFDF91CF910895B7
:2005E000862F642F0C94B4026F927F928F929F92AF92BF92CF92DF92EF92FF920F931F932F
:20060000CF93DF9381E0809308038FB7F8944091FB015091FC016091FD017091FE018FBFCD
:200620008091F8029091F902A091FA02B091FB02481B590B6A0B7B0B809104039091050325
:20064000A0E0B0E084179507A607B70708F0F0C0C0E080910203C81730F0712C812C912C84
:200660005401839440C0E091FE02F091FF02EC0FF11D62E080810E94B402CF5FEACFC62D9D
:20068000D0E0E091FE02F091FF02EC0FFD1F80810E9455022496CC0FDD1FC456DD4F892B1B
:2006A00009F04BC0888199818C299D2999838883639480910203681610F3E0910003F091EE
:2006C0000103E00FF11F61E080810E9481028091000390910103FC01E00FF11F60E080813A
:2006E0000E94B402739480910303781658F5072D10E0E0910003F0910103E00FF11F61E04C
:2007000080810E94B402E0910003F0910103E00FF11F60E080810E948102D501C401072C54
:2007200004C0880F991FAA1FBB1F0A94D2F76C017C01E094F094612CBCCF888199818E21D0
:200740009F21B4CF2CE9E22E22E0F22E88ED92E0F7012FEF3FEF478D50A1452B21F4148EF8
:20076000368F258F11A236968E179F07A1F7C0E096E0D92E80910203C81758F5D0E00C2F54
:2007800010E0000F111F0C551D4F20910303D217F0F4F801408151810D2E02C05695479589
:2007A0000A94E2F7642F6170C29F900111242D0F311DECE9F2E080E0A58DB68D2A173B07AE
:2007C00009F456C08F5F36968A30B1F735C0CF5FD1CF80E0F70191A1911181E0F6E0EF0EC7
:2007E000F11C98EDE91692E0F906A1F79FB7F8944091FB015091FC016091FD017091FE01E3
:200800009FBF4093F8025093F9026093FA027093FB02882369F08091BD02882349F0809117
:20082000BB029091BC02019719F48091B8022AC01092080380E026C040FF1CC0ECE9F2E00D
:2008400080E090E0448D411117C0E091FC02F091FD02E20FF31F4081D89EF001D99EF00D40
:200860001124E456FD4F448F368F258F10A2178E0E94AF00DF5F89CF019636968A30910580
:2008800009F7F8CFDF91CF911F910F91FF90EF90DF90CF90BF90AF909F908F907F906F90AB
:2008A00008953FB7F8948091F7019091F801A091F901B091FA0126B5A89B05C02F3F19F035
:2008C0000196A11DB11D3FBFBA2FA92F982F8827820F911DA11DB11DBC01CD0142E0660FD3
:2008E000771F881F991F4A95D1F708958F929F92AF92BF92CF92DF92EF92FF926B017C010E
:200900000E9451044B015C01C114D104E104F104F1F00E945104DC01CB0188199909AA093C
:20092000BB09883E9340A105B10570F321E0C21AD108E108F10888EE880E83E0981EA11C21
:20094000B11CC114D104E104F10419F7DDCFFF90EF90DF90CF90BF90AF909F908F90089535
:20096000CF93DF93EC0160E08E810E94810261E08E810E94810260E08E810E9481028BE8E6
:2009800091E00197F1F7DF91CF910895CF92DF92EF92FF920F931F93CF93DF936C017C0103
:2009A00087E0E80EF11CC0E0D0E0062F10E0B8010C2E02C0759567950A94E2F76170F7015D
:2009C00081917F010E9481022196C430D10579F7C601DF91CF911F910F91FF90EF90DF900B
:2009E000CF900C94B004CF92DF92EF92FF920F931F93CF93DF93EC01F62E642F8C810E94E5
:200A000081028D818F3F19F060E00E9481028F850F2D10E084FF25C06E0187E0C80ED11CC8
:200A2000E12CF12CB8010E2C02C0759567950A94E2F76170F60181916F010E948102FFEFFD
:200A4000EF1AFF0A88E0E816F10461F7CE01DF91CF911F910F91FF90EF90DF90CF900C9466
:200A6000B004B80184E0759567958A95E1F7CE010E94C6046F2DCE01DF91CF911F910F91E2
:200A8000FF90EF90DF90CF900C94C60440E0682F8BE093E00C94F30481E00E9446058BE328
:200AA0009FE10197F1F70895CF93DF93823028F090911A03986090931A0380931E031092AF
:200AC0001F0380E48093200380E18093210380E58093220361E080910F030E94B402809158
:200AE00010038F3F19F061E00E94B40261E0809111030E94B402CBE0D3E09E012B503340CA
:200B000080911A0384FD03C084E090E002C088E090E02196281739072CF461E08E810E94AD
:200B2000B402EBCF8BE39DE00197F1F760E080910F030E94810260E0809111030E948102C8
:200B4000809110038F3F19F060E00E94810280911A0384FD20C063E08BE093E00E94C60419
:200B6000CBE4D6E4CE010197F1F763E08BE093E00E94C6042197F1F763E08BE093E00E94CD
:200B8000C60483E592E00197F1F762E08BE093E00E94C60415C080620E9446058BE496E418
:200BA0000197F1F780911A0380620E94460583E592E00197F1F780911A0380620E94460561
:200BC00080911A0380620E94460584E080931B038CE00E9446050E944C0582E080931C03A3
:200BE00086E0DF91CF910C944605E1E090911E039111E0E0E195F0E0E55FFC4F9489890FE5
:200C000080680C94460541E00E94F30481E090E00895089580E090E008950E94F9086115B6
:200C2000710579F0FB0101900020E9F73197AF01461B570BDC01ED91FC910280F381E02D22
:200C4000099480E090E00895CF93DF93BC018FEF91E00E940F06EC0160E471E08FEF91E0E2
:200C60000E940F068C0F9D1FDF91CF9108951F920F920FB60F9211242F933F934F935F93A4
:200C80006F937F938F939F93AF93BF93EF93FF938FEF91E00E949101FF91EF91BF91AF9181
:200CA0009F918F917F916F915F914F913F912F910F900FBE0F901F9018951F920F920FB6F6
:200CC0000F9211242F938F939F93EF93FF93E0910F02F09110028081E0911502F0911602DD
:200CE00082FD12C09081809118028F5F8F7320911902821751F0E0911802F0E0E150FE4FF8
:200D0000958F8093180201C08081FF91EF919F918F912F910F900FBE0F901F9018951F9288
:200D20000F920FB60F9211242F933F938F939F93AF93BF938091FB019091FC01A091FD01A1
:200D4000B091FE013091F60123E0230F2D3720F40196A11DB11D05C026E8230F0296A11D70
:200D6000B11D2093F6018093FB019093FC01A093FD01B093FE018091F7019091F801A09105
:200D8000F901B091FA010196A11DB11D8093F7019093F801A093F901B093FA01BF91AF91D8
:200DA0009F918F913F912F910F900FBE0F901F901895109202021092010288EE93E0A0E038
:200DC000B0E08093030290930402A0930502B09306028CE191E0909300028093FF0185EC36
:200DE00090E090930C0280930B0284EC90E090930E0280930D0280EC90E0909310028093D9
:200E00000F0281EC90E0909312028093110282EC90E0909314028093130286EC90E0909343
:200E2000160280931502109218021092190210921A0210921B0210920E0310920D0388E3AA
:200E400091E090930C0380930B038CE080930F038FEF809310038DE0809311038EE0809384
:200E600012038BE1809313038AE18093140389E1809315031092160310921703109218036A
:200E80001092190310921A0381E00E94540510929E021092A2021092A1021092A3028EE2F5
:200EA00091E090939D0280939C02ECE9F2E0148E10A2178E11A2369682E0E83DF807B9F7F9
:200EC00084E091E09093FF028093FE0280E091E0909301038093000384E080930203809369
:200EE000030388E091E09093FD028093FC028AE090E0909305038093040384EF91E09093BA
:200F000007038093060310920A03109209031092F8021092F9021092FA021092FB02109236
:200F200008030895CF93DF93CDB7DEB764970FB6F894DEBF0FBECDBF789484B5826084BD72
:200F400084B5816084BD85B5826085BD85B5816085BD80916E00816080936E001092810077
:200F600080918100826080938100809181008160809381008091800081608093800080914C
:200F8000B10084608093B1008091B00081608093B00080917A00846080937A0080917A000C
:200FA000826080937A0080917A00816080937A0080917A00806880937A001092C100E091F5
:200FC0000F02F091100282E08083E0910B02F0910C021082E0910D02F0910E028FEC8083DA
:200FE00010921702E0911302F091140286E08083E0911102F0911202808180618083E09141
:201000001102F0911202808188608083E0911102F0911202808180688083E0911102F09132
:20102000120280818F7D808360E471E08FEF91E00E940F0683E491E00E94240687E791E0CE
:201040000E94240687E891E00E94240682E00E9454050E944C0589E991E00E94240682E1B6
:20106000B82E7E0183E0E80EF11C6E01E0E1CE0ED11C1A821982F7018B2D11928A95E9F723
:201080008E010F5F1F4F902EA12E0E94F4028823E1F3F80181938F0141E06AE28BE093E059
:2010A0000E94F30464E670E080E090E00E9476040C151D0551F760EB71E0892D9A2D0E94CB
:2010C000FE08892B09F07AC00E944C0580E00E94F50560EC71E08BE093E00E940F0668EBAF
:2010E0007BE080E090E00E9476040E944C056AEC71E08BE093E00E940F0685E00E94F50579
:2011000068EE73E080E090E00E94760460ED71E08BE093E00E940F0668EE73E080E090E08E
:201120000E94760486E00E94F50560ED71E08BE093E00E940F0668EE73E080E090E00E9443
:20114000760487E00E94F50560ED71E08BE093E00E940F0668EE73E080E090E00E9476044A
:201160000E944C0580E00E94F50562ED71E08BE093E00E940F0600E110E088E10E94460524
:2011800064EF71E080E090E00E94760401501109A1F700E110E08CE10E94460564EF71E0ED
:2011A00080E090E00E94760401501109A1F760E177E280E090E00E94760410C00E944C05F7
:2011C0006FEE71E08BE093E00E940F0660ED77E080E090E00E9476040E944C050E944C0556
:2011E0000E94220246CFEE0FFF1F0590F491E02D099481E090E0F8940C940709FB01DC014F
:201200008D91019080190110D9F3990B0895F894FFCF121315160F02040531323341343564
:201220003642373839432A30234400000000B30120014A0100027B0159016D010000000024
:20124000F002B0027E0200000000030620010A0609060D0A007273203D31322C20656E2026
:201260003D2031332C206434203D2031342C206435203D2032372C206436203D2032362C25
:20128000206437203D2032350072203D2031352C20322C20342C20350063203D2031382C66
:2012A00031392C2032312C20323200456E74657220746865206469676974206B6579203A12
:2012C000200031313931303531313431303131303000436F7272656374202100576169745C
:2012E00020002E0077697265647B695F6C3076335F7A657230735F346E645F306E33357D63
:201300000057726F6E670000FFFFFFFFFFFFFFFFFFFFFFFFFFFFFFFFFFFFFFFFFFFFFFFFD8
:20132000FFFFFFFFFFFFFFFFFFFFFFFFFFFFFFFFFFFFFFFFFFFFFFFFFFFFFFFFFFFFFFFFCD
:20134000FFFFFFFFFFFFFFFFFFFFFFFFFFFFFFFFFFFFFFFFFFFFFFFFFFFFFFFFFFFFFFFFAD
:20136000FFFFFFFFFFFFFFFFFFFFFFFFFFFFFFFFFFFFFFFFFFFFFFFFFFFFFFFFFFFFFFFF8D
:201380002789308DC8E0D0E0C21BD30B4C175D0708F4EA018C01C9014996AE01800F911FFB
:2013A0000E94290DF8018789908D8C0F9D1F908F878BCE01DF91CF911F910F9108951F926A
:2013C0000F920FB60F9211242F933F938F939F93AF93BF938091DB029091DC02A091DD0258
:2013E000B091DE023091DA0223E0230F2D3758F50196A11DB11D2093DA028093DB02909384
:20140000DC02A093DD02B093DE028091D6029091D702A091D802B091D9020196A11DB11D8C
:201420008093D6029093D702A093D802B093D902BF91AF919F918F913F912F910F900FBEBE
:201440000F901F90189526E8230F0296A11DB11DD2CF1F920F920FB60F9211242F933F930B
:201460004F935F936F937F938F939F93AF93BF93EF93FF93E0910201F09103010995FF9161
:20148000EF91BF91AF919F918F917F916F915F914F913F912F910F900FBE0F901F90189515
:2014A0001F920F920FB60F9211242F933F934F935F936F937F938F939F93AF93BF93EF9359
:2014C000FF93E0910001F09101010995FF91EF91BF91AF919F918F917F916F915F914F9117
:2014E0003F912F910F900FBE0F901F9018951F920F920FB60F9211242F933F934F935F93A0
:201500006F937F938F939F93AF93BF93EF93FF938FED92E00E948301FF91EF91BF91AF9107
:201520009F918F917F916F915F914F913F912F910F900FBE0F901F9018951F920F920FB66D
:201540000F9211242F938F939F93EF93FF93E091EF02F091F0028081E091F502F091F602D4
:2015600082FD1BC090818091F8028F5F8F732091F902821741F0E091F802F0E0E152FD4FD5
:20158000958F8093F802FF91EF919F918F912F910F900FBE0F901F9018958081F4CFEFEDF3
:2015A000F2E01382128288EE93E0A0E0B0E084839583A683B78386E192E09183808385EC54
:2015C00090E09587848784EC90E09787868780EC90E0918B808B81EC90E0938B828B82ECF0
:2015E00090E0958B848B86EC90E0978B868B118E128E138E148EECE7F3E01382128215864B
:20160000148616864FEF5FEFBA014787508B618B728B81E0838B148A168A158A108E178A30
:2016200041A352A363A374A315A216A210A617A212A611A614A613A6148215821682178296
:2016400028E232E03183208390E595AB86AB8AE090E090AF87AB82E090E092AF81AF80E043
:2016600094E2A4EFB0E083AF94AFA5AFB6AF0895789484B5826084BD84B5816084BD85B509
:20168000826085BD85B5816085BD80916E00816080936E001092810080918100826080933E
:2016A000810080918100816080938100809180008160809380008091B10084608093B10033
:2016C0008091B00081608093B00080917A00846080937A0080917A00826080937A0080919E
:2016E0007A00816080937A0080917A00806880937A001092C100E091EF02F091F00282E068
:201700008083E091EB02F091EC021082E091ED02F091EE028FEC80831092F702E091F30217
:20172000F091F40286E08083E091F102F091F202808180618083E091F102F091F202808131
:2017400088608083E091F102F091F202808180688083E091F102F091F20280818F7D8083F0
:2017600086EA92E00E94D40884E592E00E94D40840E251EA67E070E08CE793E00E943F08ED
:20178000892B49F48CEB92E00E94D40884E592E00E94D408FFCF67E579E08CE793E00E949D
:2017A0002002C0E0D0E02097F1F30E946F018823D1F30E940000F7CFA1E21A2EAA1BBB1BCD
:2017C000FD010DC0AA1FBB1FEE1FFF1FA217B307E407F50720F0A21BB30BE40BF50B661F17
:2017E000771F881F991F1A9469F760957095809590959B01AC01BD01CF010895EE0FFF1F23
:201800000590F491E02D09940F931F93CF93DF938230910510F482E090E0E091BD03F0910C
:20182000BE0330E020E0B0E0A0E0309799F42115310509F44AC0281B390B24303105D8F522
:201840008A819B816115710589F1FB0193838283FE0111C0408151810281138148175907AB
:20186000E0F04817590799F4109761F012960C93129713961C933296CF01DF91CF911F91F4
:201880000F9108950093BD031093BE03F4CF2115310551F04217530738F0A901DB019A01E8
:2018A000BD01DF01F801C1CFEF01F9CF9093BE038093BD03CDCFFE01E20FF31F81939193BC
:2018C0002250310939832883D7CF2091BB033091BC03232B41F42091060130910701309399
:2018E000BC032093BB0320910401309105012115310541F42DB73EB74091080150910901FC
:20190000241B350BE091BB03F091BC03E217F307A0F42E1B3F0B2817390778F0AC014E5F7E
:201920005F4F2417350748F04E0F5F1F5093BC034093BB03819391939FCFF0E0E0E09CCF9B
:20194000CF93DF930097E9F0FC01329713821282A091BD03B091BE03ED0130E020E01097BC
:20196000A1F420813181820F931F2091BB033091BC032817390709F061C0F093BC03E093FF
:20198000BB03DF91CF910895EA01CE17DF07E8F54A815B819E0141155105B1F7E901FB8387
:2019A000EA8349915991C40FD51FEC17FD0761F4808191810296840F951FE90199838883D0
:2019C000828193819B838A83F0E0E0E012968D919C9113970097B9F52D913C911197CD0152
:2019E0000296820F931F2091BB033091BC032817390739F6309751F51092BE031092BD039D
:201A0000B093BC03A093BB03BCCFD383C28340815181840F951FC817D90761F44E5F5F4F64
:201A200088819981480F591F518340838A819B81938382832115310509F0B0CFF093BE03B3
:201A4000E093BD039ECFFD01DC01C0CF13821282D7CFFB01DC0102C001900D9241505040C1
:201A6000D8F70895F894FFCF040104010000BF03800000127A0040420F0000800000127A2B
:201A80000020A1070000900200127A0090D0030000B10500127A00400D030000B40600129F
:201AA0007A0048E8010001B10500127A00A086010001B40600127A008038010001BF07004A
:201AC000127A0050C3000003B40600127A00409C000003BF0700127A00204E000007BF07B2
:201AE00000127A00102700000FBF0700127A00881300001FBF070024F40040420F0000D0C9
:201B0000820024F40020A1070000F0860024F40090D0030041F1850024F400400D03000152
:201B2000FA870024F40048E8010003F0860024F400A086010003FA870024F40080380100CE
:201B400003FF870024F40050C3000007FA870024F400409C000007FF870024F400204E0042
:201B6000000FFF870024F400102700001FFF870024F400881300003FFF8700000000A501BE
:201B800005013201F201630141015501000000003607B609D108B50214021A0703073F0809
:201BA000B6025D0703062002C8086605B80860044B04360421040C041302B2090D0A005288
:201BC000656365697665642000657874656E646564200052545220007061636B6574207778
:201BE0006974682069642030780020616E6420726571756573746564206C656E67746820E4
:201C00000020616E64206C656E677468200043414E2052656365697665722043616C6C628A
:201C200061636B005374617274696E672043414E206661696C6564210000FFFFFFFFFFFF97
:201C4000FFFFFFFFFFFFFFFFFFFFFFFFFFFFFFFFFFFFFFFFFFFFFFFFFFFFFFFFFFFFFFFFA4
:201C6000FFFFFFFFFFFFFFFFFFFFFFFFFFFFFFFFFFFFFFFFFFFFFFFFFFFFFFFFFFFFFFFF84
:201C80000E94A0028D810E94BA0510E000E08D819E810817190760F4B801CE0101960E9440
:201CA000F400FC0180810E94BA050F5F1F4FEFCF61E08AE00E94A00268EE73E080E090E0CF
:201CC0000E946A04CE0101960E94BF0615CD0E947C028C01892B09F00FCD80E00E94BA054E
:201CE000C82ED12C6EE271E0CE0101960E9483070C151D055CF480E00E94BA05682FCE0104
:201D000001960E942E070F5F1F4FF2CF0E947C02892BE1F3D7CF8EE592E00E944D060E94EE
:201D20008E006EE271E084E694E00E9462071C8A1B8A1E8A1D8A188E1F8A6AE674E0CE012F
:201D400043960E946C0788E792E00E944D0680919D038111ABC120916804309169048091B4
:201D60007404909175042817390711F580916404909165046091700470917104009709F45A
:201D80007EC16115710509F043C0232B09F47BC1FC01808190E009C0232B09F474C1FB01E2
:201DA000808190E0919581959109892B09F46BC180910001811114C08CE992E00E944D06AB
:201DC0008BEA92E00E944D0662E370E080E090E00E946A046EE271E084E694E00E94620728
:201DE00085EB93E00E94A401181619060CF0AFCF6EE271E0CE0101960E9483070E94E9092B
:201E000097FD09C0682FCE0101960E942E07F6CF0E943513CACF80915E0490915F04698168
:201E20007A81009709F475C06115710509F46FC040916004509161042D813E81421753072B
:201E400008F465C00E943E138D819E8190936304809362041E821D82CE0101960E94BF0632
:201E60001A8219821C821B821E821D8264E674E0CE0101960E946C076EE574E0CE0101968B
:201E80000E941B07BC0184E694E00E946C07CE0101960E94BF06C0906404D0906504C114AB
:201EA000D10449F0009168041091690476010115110509F046C065EB72E0CE0101960E94BD
:201EC000830764E674E0CE0101960E941B07FC01448155816081718185EB93E00E940601B9
:201EE0008CE291E00E94C105CE0101960E94BF0662E370E080E090E00E946A0410920001B6
:201F000060ED77E080E090E00E946A0420CF0E94E61189819A8190935F0480935E048B8189
:201F20009C8190936104809360048D819E8190936304809362041A8219821C821B828ACF8A
:201F400075015701FFEFAF1ABF0AF7018081082E000C990B0E949610892B91F70150110965
:201F60000C0D1D1DF8018081082E000C990B0E949610892B31F00E151F0518F00150110957
:201F8000F1CFA8014F5F5F4F4E195F095093690440936804CE14DF0420F4B701C6010E9424
:201FA0002C13E0916404F09165048091680490916904E80FF91F10827ECF1A8219821C8251
:201FC0001B821E821D82BE016D5E7F4FCE0101960E946C0760E2CE0101960E942E07811141
:201FE00004C0CE0101960E94AD064D815E8169817A81CE0149960E94EF06CE0101960E9483
:20200000BF06CE0143960E94BF060F5F1F4F49CC10E000E08D8D9E8D0817190748F5B801B1
:20202000CE0149960E94F400FC018081803381F484EF91E00E942B0364E670E080E090E018
:202040000E946A0489E00E94CE020F5F1F4FE2CFB801CE0149960E94F400FC018081813359
:2020600019F488EE93E0E6CF89E00E94CE02E4CFCE0149960E94BF06CE014F9625CE6115F5
:20208000710509F089CE8DEB92E00E94CE054F89588D6B897C8985EB93E00E9406018BEB63
:2020A00092E00E94CE0581E080939D0361E070E080E090E00E946A04F9CF8EE594E00E9463
:2020C000BF0684E694E00E94BF068AE694E00E94BF0680E794E00E94BF0686E794E00C94E8
:2020E000BF06BB274A3031F4992322F4BDE2909581959F4F0C947D10BB27FB015527AA27A8
:20210000880F991FAA1FA41710F0A41B83955051B9F7A05DAA3308F0A95DA193009779F7B1
:20212000B111B1931192CB010C949F1091110C94AF10803219F089508550C8F70895DC0138
:20214000FC01672F71917723E1F7329704C07C916D9370836291AE17BF07C8F30895992755
:20216000882708950E94F410A59F900DB49F900DA49F800D911D112408952F923F924F92D9
:202180005F926F927F928F929F92AF92BF92CF92DF92EF92FF920F931F93CF93DF93CDB7C8
:2021A000DEB7CA1BDB0B0FB6F894DEBF0FBECDBF09942A88398848885F846E847D848C84B2
:2021C0009B84AA84B984C884DF80EE80FD800C811B81AA81B981CE0FD11D0FB6F894DEBF98
:2021E0000FBECDBFED010895A29FB001B39FC001A39F700D811D1124911DB29F700D811D4A
:202200001124911D0895A1E21A2EAA1BBB1BFD010DC0AA1FBB1FEE1FFF1FA217B307E407E1
:20222000F50720F0A21BB30BE40BF50B661F771F881F991F1A9469F760957095809590956C
:202240009B01AC01BD01CF010895052E97FB1EF400940E943C1157FD07D00E94031107FCCC
:2022600003D04EF40C943C1150954095309521953F4F4F4F5F4F089590958095709561957B
:202280007F4F8F4F9F4F0895EE0FFF1F0590F491E02D09940F931F93CF93DF9382309105B8
:2022A00010F482E090E0E0917E04F0917F0430E020E0B0E0A0E0309799F42115310509F474
:2022C0004AC0281B390B24303105D8F58A819B816115710589F1FB0193838283FE0111C0A2
:2022E000408151810281138148175907E0F04817590799F4109761F012960C9312971396C8
:202300001C933296CF01DF91CF911F910F91089500937E0410937F04F4CF2115310551F00E
:202320004217530738F0A901DB019A01BD01DF01F801C1CFEF01F9CF90937F0480937E0487
:20234000CDCFFE01E20FF31F819391932250310939832883D7CF20917C0430917D04232B2D
:2023600041F4209104013091050130937D0420937C0420910201309103012115310541F41A
:202380002DB73EB74091060150910701241B350BE0917C04F0917D04E217F307A0F42E1B61
:2023A0003F0B2817390778F0AC014E5F5F4F2417350748F04E0F5F1F50937D0440937C04A3
:2023C000819391939FCFF0E0E0E09CCFCF93DF930097E9F0FC01329713821282A0917E0476
:2023E000B0917F04ED0130E020E01097A1F420813181820F931F20917C0430917D04281797
:20240000390709F061C0F0937D04E0937C04DF91CF910895EA01CE17DF07E8F54A815B81C4
:202420009E0141155105B1F7E901FB83EA8349915991C40FD51FEC17FD0761F480819181DA
:202440000296840F951FE90199838883828193819B838A83F0E0E0E012968D919C9113971D
:202460000097B9F52D913C911197CD010296820F931F20917C0430917D042817390739F61A
:20248000309751F510927F0410927E04B0937D04A0937C04BCCFD383C28340815181840F23
:2024A000951FC817D90761F44E5F5F4F88819981480F591F518340838A819B81938382832E
:2024C0002115310509F0B0CFF0937F04E0937E049ECFFD01DC01C0CF13821282D7CFB0E0E7
:2024E000A0E0E5E7F2E10C94BF108C01009751F4CB010E944A118C01C801CDB7DEB7E0E1EC
:202500000C94DB10FC01E60FF71F9C0122503109E217F30708F49DC0D901CD91DC91119746
:20252000C617D70798F0C530D10530F3CE0104978617970708F3C61BD70B2297C193D19396
:202540006D937C93CF010E94E611D6CF5B01AC1ABD0A4C018C0E9D1EA0917E04B0917F045C
:20256000512C412CF12CE12C109731F580917C0490917D048815990509F05CC0461657063E
:2025800008F058C08091020190910301009741F48DB79EB74091060150910701841B950B8D
:2025A000E817F90708F055C0F0937D04E0937C04F90171836083A0CF8D919C91119712963D
:2025C0006C90129713967C901397A815B90559F56C0142E0C40ED11CCA14DB0420F1AC0165
:2025E0004A195B09DA011296159780F06282738251834083D9016D937C93E114F10471F0D1
:20260000D7011396FC93EE93129776CF22968C0F9D1FF90191838083F301EFCFF0937F0463
:20262000E0937E0469CF4816590608F42C017D01D3019ACFCB010E944A117C01009749F0B6
:20264000AE01B8010E942C13C8010E94E611870153CF10E000E050CFFB01DC0102C001900A
:202660000D9241505040D8F70895FB01DC018D91019080190110D9F3990B0895FB01DC0116
:2026800001900D920020E1F7089510E0C3E6D0E004C0FE010E9444112196C436D107C9F729
:2026A000F894FFCF01FF00008004800000000000E601060133013302A40142015601000026
:2026C000000088055B05B7053805B700480539050D0A0052657175657374206576656E7490
:2026E0000052656365697665206576656E74004E30537434636B5F42756666337273006133
:20270000646D696E3132330053337269616C5F50316E5F34747434636B000A456E7465727A
:2027200020796F75722063686F696365203A0A2020312E20493243284D6173746572290A77
:202740002020322E2049324328536C617665290A2020332E20535049284D6173746572293B
:202760000A2020342E2053504928536C617665290A2020352E20554152540A2020362E207E
:202780005369676E616C20416E616C797369730A0053656C65637465642000203A20204941
:2027A0003243284D61737465722900203A2049324328536C6176652900203A2053504928D5
:2027C0004D61737465722900203A2053504928536C6176652900203A2055415254003A20A2
:2027E0005369676E616C20416E616C79736973004431673174346C5F463072656E733163D5
:20280000730055415254204368616C6C656E6765206C6F6164696E672E2E2E0049206861AC
:20282000766520636F6E666964656E7469616C206D6573736167652E2050617373203F0064
:2028400057726F6E672070617373776F72640054727920616761696E0050617373203A2068
:202860000057656C6C20646F6E6521204D6573736167653A200046534B003000FFFFFFFF8E
:202880000E946613F9CFFC011182108213821282158214820C942C14FC0111821082138246
:2028A000128215821482FB0101900020E9F73197AF01461B570B0C94E913BF92CF92DF92D0
:2028C000EF92FF920F931F93CF93DF9300D000D000D0CDB7DEB76C018B010E94461310929F
:2028E00084031092830310928603109285036AE571E0CE0101960E944C14B801CE010196AD
:202900000E94D6138C0141E050E06CE671E00E94AA13811103C0C8010E946613C8010E94A8
:20292000D205CE0101960E947813EE24E394F12C07E010E020E830E047E050E070E060E0B1
:2029400087E793E00E947B0D10928403109283038AE090E09093860380938503C6010E9491
:20296000D2058091940390919503892B09F49AC02091AC033091AD034091AE035091AF032E
:2029800060E074E284EF90E00E94DA1D205131094109510956954795379527952093B8001C
:2029A00065E088E690E00E94D61160917B03615087E793E00E948B1220917D0330917E03B8
:2029C000C901079697FD079633E0959587953A95E1F720917B0330917C03829F7001839F3C
:2029E000F00C929FF00C112400919603109197038091940390919503E00EF11E009709F422
:202A000099C02091980331E03093B5022093B4021092B3021092B202DC01ED91FC910190F7
:202A2000F081E02D60E40995CC24C394D12CBB24B3948091940390919503E016F10609F481
:202A400048C0B0E2CB16D104D8F00E94EF10809194039091950320919803B092B502209364
:202A6000B4021092B3021092B202DC01ED91FC910190F081E02D60E40995CC24C394D12CD6
:202A80008091940390919503F80161918F01DC01ED91FC910190F081E02D0995BFEFCB1A32
:202AA000DB0AC7CF8091920390919303892B31F08091B5039091B6030E940C0AE091A603F4
:202AC000F091A70390818091AB0380958923808367CF0E94EF108091940390919503892B4B
:202AE00009F46BC02091B0033091B1034091B2035091B30360E074E284EF90E00E94DA1DA6
:202B0000205131094109510956954795379527952093B80026960FB6F894DEBF0FBECDBFA9
:202B2000DF91CF911F910F91FF90EF90DF90CF90BF900895E091A403F091A503808190914A
:202B4000AA03892B8083E016F10629F2F80181918F012091920330919303232B19F00E94D8
:202B6000050AF1CF28E030E040E8E091A003F091A1039091A803542F5823D9F05081952BE9
:202B80009083E091A203F091A30390815091A903952B9083E091A203F091A3035081909145
:202BA000A903909595239083469521503109E9F6CACF508190959523E3CFE091A603F09180
:202BC000A70380819091AB03892B8083A3CF85ED8093BC008091310290913202A091330212
:202BE000B09134020796A11DB11D23E0B695A795979587952A95D1F72091BC0024FD03C08B
:202C000010927A02089540913102509132026091330270913402452B462B472B69F300973D
:202C2000A105B10541F02AE22A95F1F700C00197A109B109E1CF809130020C9449101F92FB
:202C40000F920FB60F9211242F933F934F935F936F937F938F939F93AF93BF93EF93FF93C0
:202C600086EB92E00E947C06FF91EF91BF91AF919F918F917F916F915F914F913F912F91ED
:202C80000F900FBE0F901F9018951F920F920FB60F9211242F938F939F93EF93FF93E09145
:202CA000C602F091C7028081E091CC02F091CD0282FD1BC090818091CF028F5F8F73209184
:202CC000D002821741F0E091CF02F0E0EA54FD4F958F8093CF02FF91EF919F918F912F9194
:202CE0000F900FBE0F901F9018958081F4CF1F920F920FB60F9211242F933F938F939F93D4
:202D0000AF93BF938091AE029091AF02A091B002B091B1023091A00223E0230F2D3758F56C
:202D20000196A11DB11D2093A0028093AE029093AF02A093B002B093B1028091A1029091D4
:202D4000A202A091A302B091A4020196A11DB11D8093A1029093A202A093A302B093A402B1
:202D6000BF91AF919F918F913F912F910F900FBE0F901F90189526E8230F0296A11DB11D18
:202D8000D2CF1F920F920FB60F9211242F933F934F935F936F937F938F939F93AF93BF9341
:202DA000EF93FF938091B900887F803609F44AC0F0F5883209F4A7C018F5803109F49BC058
:202DC000B8F4882309F4F9C0883009F494C0FF91EF91BF91AF919F918F917F916F915F91ED
:202DE0004F913F912F910F900FBE0F901F901895883109F488C0803251F78093790214C0A2
:202E0000803409F49DC040F48033B9F38833F9F68093790285ECB0C0803509F485C0883544
:202E200009F496C0883499F60E94E715D0CF883909F48CC038F5883729F050F4883611F0A5
:202E4000803729F683E080937A021092780257C0883809F47BC0803919F0803809F0B7CF86
:202E600080917802803208F071C0E091780281E08E0F809378028091BB00F0E0E85AFD4F4C
:202E800080833DC0803B39F0E0F4803A09F479C0883A09F09CCF84E080937A021092570276
:202EA00010925602E091A802F091A90209958091560281110FC081E08093560210923602C3
:202EC00009C0803C09F4A6CF883C09F4A3CF883B09F07DCFE091570281E08E0F809357028C
:202EE000F0E0EA5CFD4F80818093BB00909157028091560229C080919F028093BB0085ECE4
:202F00008093BC0064CF90919E0280919D02981758F5E0919E0281E08E0F80939E02F0E0B0
:202F2000E358FD4F8081E9CFE0919E0281E08E0F80939E028091BB00F0E0E358FD4F808369
:202F400090919E0280919D029817C8F285E8D8CFE0919E0281E08E0F80939E028091BB00F5
:202F6000F0E0E358FD4F808380917C0281115CCF81E080937B0284EA8093BC0010927A025F
:202F800026CF85EC8093BC0010927A0280917802803230F4E0917802F0E0E85AFD4F1082A2
:202FA0006091780270E0E091A602F091A70288E592E00995109278020ACF1092790234CF81
:202FC000E6EBF2E01382128248EE53E060E070E044835583668377838BE091E091838083B7
:202FE00085EC90E09587848784EC90E09787868780EC90E0918B808B81EC90E0938B828BB3
:2030000082EC90E0958B848B86EC90E0978B868B118E128E138E148EA3E5B3E013961C929A
:203020001E92129714964D935D936D937C9317978DE191E011969C938E93E7E7F3E01382F4
:20304000128220E830E03583248380E290E0978386833187208793878287168A1586148619
:203060001786168681E0858B848B2FEF3FEF338B228B318B208B878B108E128E118E8FE219
:2030800091E091838083148E138EB68FA58F10A2178E8FEF84A385A386A387A380A780E5E9
:2030A00086AF17AE6EE671E081E793E00E944C1468E771E08BE693E00E944C1469E571E06F
:2030C00085E693E00E944C1469E571E08FE593E00C944C14CF93DF93CDB7DEB7E6970FB65B
:2030E000F894DEBF0FBECDBF789484B5826084BD84B5816084BD85B5826085BD85B5816012
:2031000085BD80916E00816080936E001092810080918100826080938100809181008160EE
:2031200080938100809180008160809380008091B10084608093B1008091B00081608093D7
:20314000B00080917A00846080937A0080917A00826080937A0080917A00816080937A00D0
:2031600080917A00806880937A001092C100E091C602F091C70282E08083E091C202F0914E
:20318000C3021082E091C402F091C5028FEC80831092CE02E091CA02F091CB0286E0808375
:2031A000E091C802F091C902808180618083E091C802F091C902808188608083E091C802F5
:2031C000F091C902808180688083E091C802F091C90280818F7D808369E571E085E693E0A3
:2031E0000E940A148091960390919703892B11F10E94461320917D0330917E0380917B03F7
:2032000090917C03213231050CF01EC1B9016052710977FF02C06F5F7F4F75956795835710
:20322000910997FD019600E210E023E730E043EA55E01DC120917D0330917E03C9010796C3
:2032400097FD0796B3E095958795BA95E1F720917B0330917C03AC01429FC001439F900D00
:20326000529F900D11240E94021E9093970380939603892B09F0BCCF0E94461381E08093B9
:203280008B0380938C0321E030E030938A0320938903309388032093870380938F0383E1CA
:2032A00090E00E946C05FC016081CE0101960E94141482E190E00E946C05FC016081CE01EA
:2032C00007960E9414148DE090E00E946C05FC016081CE010D960E94141489E090E00E9402
:2032E0006C05FC016081CE0143960E94141485E090E00E946C05FC016081CE0149960E94F7
:20330000141482E090E00E946C05FC016081CE014F960E94141490E080E00E946C05FC0164
:203320006081CE018B960E941414BE01655D7F4FCE0185960E944314BE01615E7F4FCE01A5
:2033400085960E94D613BE01675E7F4F0E94D613BE016D5E7F4F0E94D613BE01635F7F4FB8
:203360000E94D613BE01695F7F4F0E94D613BE016F5F7F4F0E94D613BC01CE01C1960E9477
:203380004314CE0185960E947813CE018B960E947813CE014F960E947813CE0149960E9471
:2033A0007813CE0143960E947813CE010D960E947813CE0107960E947813CE0101960E946D
:2033C000781368E871E0CE0101960E944C146CE871E0CE0107960E944C14BE016F5F7F4FEB
:2033E000CE0107960E945D14CE0107960E947813CE0101960E947813BB24B3948091AC023D
:20340000811134C32091690330916A0380917503909176032817390709F00FC280916503F3
:20342000909166036091710370917203009709F42DC36115710509F043C2232B09F42AC381
:20344000FC01808190E0F6C1B9016054710977FF02C06F5F7F4F759567958255910997FD80
:20346000019600E410E022E530E043E857E0959587950E94F60E82E08093990380919403C3
:2034800090919503892B09F4DEC08CE3809398031092AB021092AA021092B3021092B202BD
:2034A0000E942B1082EA95E09093A9028093A80283EA95E09093A7028093A60280919F03A7
:2034C00087FD1DC00E94820561E080919F030E940B0761E070E080E090E00E947C0760E0F4
:2034E00080919F030E940B076AE070E080E090E00E947C0761E080919F030E940B0780911D
:20350000940390919503892B09F454C12091AC033091AD034091AE035091AF0360E074E219
:2035200084EF90E00E94DA1D205131094109510956954795379527952093B80064E08FE94A
:2035400095E00E94D61160917D03615087E793E00E948B1264E08BE995E00E94D611809164
:20356000990360E1813009F064E187E793E00E948B1264E087E995E00E94D6118FE8809323
:20358000B40380917B0390917C038038910509F02AC180917D0390917E038034910509F09D
:2035A00032C180919903813009F01BC18FE98093B40312E16AED87E793E00E948B12612FA9
:2035C00087E793E00E948B1261E887E793E00E948B126091B40387E793E00E948B1269ED44
:2035E00087E793E00E948B128091990362E2813009F061EF87E793E00E948B1266E081E9F0
:2036000095E00E94D6118091940390919503892B09F4FDC02091B0033091B1034091B2037E
:203620005091B30360E074E284EF90E00E94DA1D2051310941095109569547953795279543
:203640002093B80019CE80919D030E94820580919E030E94820580919D03082E000C990BCC
:20366000FC01E95AF54FE491F0E0EE0FFF1FED5BF54F259134913093A5032093A403FC019D
:20368000E559F54FE491E093AA0380919E03082E000C990BFC01E95AF54FE491F0E0EE0FB5
:2036A000FF1FED5BF54FA591B491B093A703A093A603FC01E559F54FE491E093AB038C91EA
:2036C000E82BEC938091920390919303892B89F11FB7F8948091A502811124C0E1E6FAE09C
:2036E0008491E5E7FAE09491E82FF0E0EE0FFF1FE35BF54FA591B491EC91E92321F461E00C
:203700008AE00E940B078AE00E9482058CB580618CBD8CB580648CBD8DE00E9482058BE01E
:203720000E9482058091A5028F5F8093A5021FBFC5CE80919B030E94820580919C030E9465
:20374000820580919B03082E000C990BFC01E95AF54FE491F0E0EE0FFF1FED5BF54F259127
:2037600034913093A1032093A003FC01E559F54FE491E093A80380919C03082E000C990B1F
:20378000FC01E95AF54FE491F0E0EE0FFF1FED5BF54FA591B491B093A303A093A203FC0180
:2037A000E559F54FE491E093A9038C91E095E823EC9384CE8091920390919303892B31F053
:2037C0008091B5039091B6030E940C0AE091A603F091A70390818091AB03809589238083B5
:2037E000ADCE8FECE4CE8036910569F480917D0390917E03409739F480919903813029F4C6
:2038000080E18093B40312E0D5CE8FEAFACFE091A603F091A70380819091AB03892B8083DA
:203820002BCD232B09F436C1FB01808190E0919581959109892B09F42DC1809100018111C8
:2038400021C060EB71E0CE0101960E944C1464EB71E0CE0107960E944C14BE016F5F7F4F1A
:20386000CE0107960E945D14CE0107960E947813CE0101960E94781369E571E085E693E020
:203880000E940A1486EB92E00E945C06181619060CF0B4CD69E571E0CE0101960E944C14B0
:2038A0000E940E0697FD0FC08F83188641E050E0BE01695F7F4FCE0101960E94AA13F0CF15
:2038C0000E94F91FB7CF80915F0390916003009709F478C069817A816115710509F470C0E7
:2038E00040916103509162032D813E814217530708F466C00E9402208D819E819093640390
:20390000809363031E821D82CE0101960E94781365E673E0CE0101960E9443146FE573E0B8
:20392000CE0101960E94D613BC0185E693E00E942C14CE0101960E947813C0906503D0906E
:203940006603C114D10449F00091690310916A0376010115110509F04DC060EB71E0CE01FC
:2039600001960E944C146DEC71E0CE010D960E944C1465E673E0CE010D960E94D613BC0138
:20398000CE0107960E944314BE016F5F7F4FCE0107960E945D14CE0107960E947813CE0180
:2039A0000D960E947813CE0101960E9478131092000160ED77E080E090E00E947C071ECD7D
:2039C0000E949E1E89819A819093600380935F038B819C8190936203809361038D819E8114
:2039E00090936403809363031A8219821C821B8289CF74014701FFEF8F1A9F0AF701808104
:203A0000082E000C990B0E94971D892B91F7015011090C0D1D1DF8018081082E000C990B90
:203A20000E94971D892B31F00E151F0518F001501109F1CFA8014F5F5F4F4E195F0950932A
:203A40006A0340936903CE14DF0420F4B701C6010E94E91FE0916503F09166038091690378
:203A600090916A03E80FF91F108277CFCE01C1960E94781300E010E001151105E9F30E9404
:203A800068068823C9F30E940000F6CF6115710509F0C7CE65ED71E0CE0101960E944C1465
:203AA00069ED71E0CE010D960E944C14BE016F5C7F4FCE010D960E94D613BC01CE0107966D
:203AC0000E944314BE016F5F7F4FCE0107960E945D14CE0107960E947813CE010D960E9466
:203AE0007813CE0101960E947813B092AC0286CC8FE593E00E94781385E693E00E94781347
:203B00008BE693E00E94781381E793E00E9478138FE291E0909378038093770380919603D5
:203B200090919703009711F00C949E1E089591110C94A01D803219F089508550C8F7089575
:203B40009927882708952F923F924F925F926F927F928F929F92AF92BF92CF92DF92EF92AC
:203B6000FF920F931F93CF93DF93CDB7DEB7CA1BDB0B0FB6F894DEBF0FBECDBF09942A8812
:203B8000398848885F846E847D848C849B84AA84B984C884DF80EE80FD800C811B81AA813A
:203BA000B981CE0FD11D0FB6F894DEBF0FBECDBFED010895A1E21A2EAA1BBB1BFD010DC0FD
:203BC000AA1FBB1FEE1FFF1FA217B307E407F50720F0A21BB30BE40BF50B661F771F881F81
:203BE000991F1A9469F760957095809590959B01AC01BD01CF010895EE0FFF1F0590F49122
:203C0000E02D09940F931F93CF93DF938230910510F482E090E0E091B903F091BA0330E039
:203C200020E0B0E0A0E0309799F42115310509F44AC0281B390B24303105D8F58A819B81A8
:203C40006115710589F1FB0193838283FE0111C0408151810281138148175907E0F048177F
:203C6000590799F4109761F012960C93129713961C933296CF01DF91CF911F910F910895C2
:203C80000093B9031093BA03F4CF2115310551F04217530738F0A901DB019A01BD01DF016B
:203CA000F801C1CFEF01F9CF9093BA038093B903CDCFFE01E20FF31F819391932250310992
:203CC00039832883D7CF2091B7033091B803232B41F420910301309104013093B8032093C1
:203CE000B70320910101309102012115310541F42DB73EB74091050150910601241B350BDB
:203D0000E091B703F091B803E217F307A0F42E1B3F0B2817390778F0AC014E5F5F4F2417F8
:203D2000350748F04E0F5F1F5093B8034093B703819391939FCFF0E0E0E09CCFCF93DF9394
:203D40000097E9F0FC01329713821282A091B903B091BA03ED0130E020E01097A1F420813E
:203D60003181820F931F2091B7033091B8032817390709F061C0F093B803E093B703DF91F3
:203D8000CF910895EA01CE17DF07E8F54A815B819E0141155105B1F7E901FB83EA8349914A
:203DA0005991C40FD51FEC17FD0761F4808191810296840F951FE9019983888382819381DC
:203DC0009B838A83F0E0E0E012968D919C9113970097B9F52D913C911197CD010296820F1C
:203DE000931F2091B7033091B8032817390739F6309751F51092BA031092B903B093B803B4
:203E0000A093B703BCCFD383C28340815181840F951FC817D90761F44E5F5F4F8881998123
:203E2000480F591F518340838A819B81938382832115310509F0B0CFF093BA03E093B90387
:203E40009ECFFD01DC01C0CF13821282D7CFB0E0A0E0EDE2FFE10C94A51D8C01009751F432
:203E6000CB010E94021E8C01C801CDB7DEB7E0E10C94C11DFC01E60FF71F9C0122503109B5
:203E8000E217F30708F49DC0D901CD91DC911197C617D70798F0C530D10530F3CE010497EE
:203EA0008617970708F3C61BD70B2297C193D1936D937C93CF010E949E1ED6CF5B01AC1A94
:203EC000BD0A4C018C0E9D1EA091B903B091BA03512C412CF12CE12C109731F58091B703E2
:203EE0009091B8038815990509F05CC04616570608F058C08091010190910201009741F4CA
:203F00008DB79EB74091050150910601841B950BE817F90708F055C0F093B803E093B70393
:203F2000F90171836083A0CF8D919C91119712966C90129713967C901397A815B90559F5D9
:203F40006C0142E0C40ED11CCA14DB0420F1AC014A195B09DA011296159780F06282738259
:203F600051834083D9016D937C93E114F10471F0D7011396FC93EE93129776CF22968C0FA4
:203F80009D1FF90191838083F301EFCFF093BA03E093B90369CF4816590608F42C017D0197
:203FA000D3019ACFCB010E94021E7C01009749F0AE01B8010E94E91FC8010E949E1E870128
:203FC00053CF10E000E050CF81E090E0F8940C940920FB01DC0102C001900D9241505040BE
:203FE000D8F70895DC0101C06D9341505040E0F70895FB01DC018D91019080190110D9F324
:20400000990B0895FB01DC0101900D920020E1F7089515E0C1E4D5E004C0FE010E94FC1DF4
:204020002196C234D107C9F7F894FFCF010000BB038000000000009E06A505EB05EB065C17
:2040400006FA054E0600000000C01093104313A1058C1079106A10000000004A0CA50543B6
:2040600013A4055509A105EF0EC70EE30ED70E570FA105100AED12C5080E09100EF30D7B36
:204080000D1C0D0D0A0054303320486172642E506173732E2020200025005448455F4D4137
:2040A0004E4430005448455F4D344E44344C305249344E002020300049206861766520631E
:2040C0006F6E666964656E7469616C206D6573736167652E2050617373203F002035300085
:2040E00057726F6E672070617373776F72640A54727920616761696E0050617373203A20A6
:20410000003130300057656C6C20646F6E6521204D657373616765203A200000FFFFFFFF38
:20412000FFFFFFFFFFFFFFFFFFFFFFFFFFFFFFFFFFFFFFFFFFFFFFFFFFFFFFFFFFFFFFFF9F
:20414000FFFFFFFFFFFFFFFFFFFFFFFFFFFFFFFFFFFFFFFFFFFFFFFFFFFFFFFFFFFFFFFF7F
:20416000FFFFFFFFFFFFFFFFFFFFFFFFFFFFFFFFFFFFFFFFFFFFFFFFFFFFFFFFFFFFFFFF5F
:20418000B2018BEC92E00E946A0D86019501A301B1018BEC92E00E946A0D0E949F1461E05F
:2041A00070E080E090E00E946B0725E0820E911CA8CF60ED77E080E090E00E946B070E94E8
:2041C0003F168091D3029091D402E090D502F090D602E816F9060CF050C07C0197FF03C02F
:2041E0003FEFE31AF30AF594E7941E141F040CF0F9C08091D5029091D60297FD0196959553
:2042000087955701A80EB91E2091D3023091D40237FF02C02F5F3F4F359527954701820E0E
:20422000931E6901CE18DF08BC016E197F0978A36F8FA616B7060CF4ACC4EF8DF8A1AE16EF
:20424000BF0609F1442755274E195F09C5016F8D78A1861B970B9CA78BA7D401AC19BD09F6
:20426000BAA7A9A77EA36DA3B8A2AF8E46016901BCAAABAA1AA219A2A6C4F7FEB4CF4FEFC2
:20428000E41AF40AB0CFC216D30654F0922F832F2C153D0514F49C2D8D2D6901292F382F04
:2042A0008C149D042CF0281539050CF494014601281939092F5F3F4F02E010E04F8D58A104
:2042C000B4018BEC92E00E94C60E0E949F1461E070E080E090E00E946B07A5E0EA1AF1087E
:2042E00084CF49A55AA5052E000C660B770B4FA758AB69AB7AAB91012A193B09A9A5BAA554
:204300000E947B272B013C0191016DA17EA1261B370BD7010E947B276DA37EA38FA398A7F0
:2043200089A19AA1092E000CAA0BBB0B89A39AA3ABA3BCA30BA51CA5012E000C220B330B2D
:204340000BA71CA72DA73EA72F8D38A1221533050CF4BBCFC301B20129A13AA14BA15CA19C
:204360000E9418278401020F131F6DA17EA18FA198A52BA53CA54DA55EA50E941827B601BC
:20438000620F731F8FA598A9A9A9BAA9480E591E6A1E7B1E2DA13EA14FA158A58DA99EA9EB
:2043A000AFA9B8AD280F391F4A1F5B1F2DA33EA34FA358A7601771072CF0962F872FB801ED
:2043C000092F182F061B170B98012F5F3F4F02E010E0A1018BEC92E00E94C60E9FEF291AC2
:2043E000390AB2CF60ED77E080E090E00E946B070E943F1681E08093DF028093E00221E02F
:2044000030E03093DE022093DD023093DC022093DB021092D8021092D7021092DA0210920F
:20442000D9028093E30210E000E060E20A30110509F0602F8BEC92E00E94390C0F5F1F4F13
:204440000115B1E01B0789F70E949F1460ED77E080E090E00E946B070E943F1681E08093CB
:20446000DF028093E00201E010E01093DE020093DD021093DC020093DB021092D802109291
:20448000D7021092DA021092D90261E47AE08BEC92E00E94EF161092DC021092DB02109377
:2044A000DE020093DD022AE043E050E060E070E08BEC92E00E9470166EE28BEC92E00E94D1
:2044C000390C2AE041E050E060E070E08BEC92E00E9470162AE044E050E060E070E08BEC36
:2044E00092E00E9470166AE571E08BEC92E00E94611622E0F22EF092DF02F092E0021093F4
:20450000DE020093DD021093DC020093DB026EE37AE08BEC92E00E94C90520E14FEE5EEBCD
:204520006DEA7EED8BEC92E00E9470166AE571E08BEC92E00E9461160E949F1460ED77E00D
:2045400080E090E00E946B070E943F16F092DF02F092E0021093DE020093DD021093DC0243
:204560000093DB028AE090E09093D8028093D7021092DA021092D90265E67AE08BEC92E07F
:204580000E94EF160E949F1464E670E080E090E00E946B078091E8029091E902892B09F4E9
:2045A0006CC2609100037091010380910203909103030E94CA1162E082E59AE00E948813BA
:2045C00060E08BEC92E00E943D1460E08BEC92E00E943D146FE08BEC92E00E943D1463E035
:2045E0008FE49AE00E9488138091E8029091E902892B09F459C260910403709105038091AC
:204600000603909107030E94CA1160ED77E080E090E00E946B070E94BA1568EE73E080E0E7
:2046200090E00E946B078091E8029091E902892B09F444C260910003709101038091020329
:20464000909103030E94CA1162E087E59AE00E94881360E08BEC92E00E943D1460E08BEC7E
:2046600092E00E943D146FE08BEC92E00E943D1463E084E59AE00E9488138091E80290912B
:20468000E902892B09F431C2609104037091050380910603909107030E94CA1160ED77E024
:2046A00080E090E00E946B070E94BA1568EE73E080E090E00E946B078091E8029091E90211
:2046C000892B09F41CC2609100037091010380910203909103030E94CA1162E08DE59AE06A
:2046E0000E9488136091D1028BEC92E00E943D1462E08BE59AE00E94881360E08BEC92E04B
:204700000E943D1460E08BEC92E00E943D1467E08BEC92E00E943D1462E089E59AE00E949B
:2047200088138091E8029091E902892B09F4FEC16091040370910503809106039091070321
:204740000E94CA1160ED77E080E090E00E946B078091E8029091E902892B09F4F1C16091F9
:2047600000037091010380910203909103030E94CA1162E083E69AE00E9488136091D10251
:204780008BEC92E00E943D1462E081E69AE00E94881360E08BEC92E00E943D1460E08BEC0A
:2047A00092E00E943D1467E08BEC92E00E943D1462E08FE59AE00E9488138091E8029091E8
:2047C000E902892B09F4D3C1609104037091050380910603909107030E94CA1160ED77E042
:2047E00080E090E00E946B070E94BA1568EE73E080E090E00E946B070E943F168091D502F8
:204800009091D602AC014051510957FF02C04F5F5F4F559547958091D3029091D402BC0133
:204820006051710977FF02C06F5F7F4F75956795F0E1EF2EF12C00E110E02BE73AE08BECF4
:2048400092E00E9480100E949F1468EE73E080E090E00E946B0761E08BEC92E00E940016F0
:2048600068EE73E080E090E00E946B0760E08BEC92E00E94001668EE73E080E090E00E94AF
:204880006B078E010F5F1F4FAAE07A2EB0EF6B2E85E0282E312C412C512CC090D302D0904A
:2048A000D4020D2C000CEE08FF0831EF832E99249A94A92CB92CE2EFCE16EFEFDE06EE06FF
:2048C000FE068CF00E94C026A7019601215F3F4F4F4F5F4F0E9418274B015C01FFE08F1A25
:2048E0009108A108B108D8018C9211966C920E94C026A20191010E9418276B017C01BFEFEC
:20490000CB1ADB0AEB0AFB0AF801C28267E77AE082E292E00E94C905882D880C990B0E9419
:20492000DF1662E77AE082E292E00E94C90580EF9FEF0E94DF166CE67AE082E292E00E94E1
:20494000C905F7FE1EC1C701B6010E94BC166AE571E082E292E00E9461167A940D5F1F4F4B
:2049600071109BCF01E010E00C0F1D1F025E1F4F18A30F8F90EF392E25E0422E512C612C98
:20498000712C0E943F169E012F5F3F4F6901D60111964C911197042E000C550B6C91062E8C
:2049A000000C770B80E1E82EF12C00E110E02BE73AE08BEC92E00E948010B3E0CB0ED11C64
:2049C000EF8DF8A1EC15FD0511F70E949F1468EC70E080E090E00E946B078E010F5F1F4F6F
:2049E000D80111968C91119712969C911297890F11968C93082E000C990B2091D502309167
:204A0000D6028217930794F18090D3029090D402092C000CAA08BB0881EF9FEFAFEFBFEF2B
:204A2000B2EF8B16BFEF9B06AB06BB067CF00E94C026A5019401215F3F4F4F4F5F4F0E9448
:204A40001827DC01CB010F97A109B109F801808331820E94C026A30192010E9418276F5F47
:204A60007F4F8F4F9F4FD80112966C930D5F1F4FC016D10609F0B4CF84CF8091E6029091AC
:204A8000E702892B31F08091090390910A030E94FB09E091FA02F091FB0290818091FF0259
:204AA00080958923808387CDE091FA02F091FB0280819091FF02892B8083A7CD8091E602AC
:204AC0009091E702892B31F08091090390910A030E94FB09E091FA02F091FB0290818091F9
:204AE000FF02809589238083AFCDE091FA02F091FB0280819091FF02892B8083CFCD809103
:204B0000E6029091E702892B31F08091090390910A030E94FB09E091FA02F091FB029081E1
:204B20008091FF02809589238083D7CDE091FA02F091FB0280819091FF02892B808302CE66
:204B40008091E6029091E702892B31F08091090390910A030E94FB09E091FA02F091FB02A1
:204B600090818091FF0280958923808302CEE091FA02F091FB0280819091FF02892B8083B9
:204B80002DCE2AE0B701A60182E292E00E947016DECEA4014C195D09EF8DF8A1EA19FB097B
:204BA000FCA7EBA7002711270E191F091AA709A7FAA3E9A39501215031093CAB2BABBEA21A
:204BC000ADA290E080E02DA03EA01FA618AA19AA1AAA412C512C320187010F2C000C220BE4
:204BE000330B0DAB1EAB2FAB38AF8C01990F220B330B09AF1AAF2BAF3CAF6BA57CA5072EE9
:204C0000000C880B990B21966CAF7DAF8EAF9FAF2197CA01550FAA0BBB0B25968CAF9DAF24
:204C2000AEAFBFAF2597ABA9BCA9A215B3050CF458CBC301B20129AD3AAD4BAD5CAD0E94CB
:204C400018278601020F131F6FA578A989A99AA921962CAD3DAD4EAD5FAD21970E94182787
:204C6000B601620F731F25962CAD3DAD4EAD5FAD2597420E531E641E751E8FA598A9A9A99C
:204C8000BAA92DA93EA94FA958AD820F931FA41FB51F8FA798ABA9ABBAAB601771072CF0E0
:204CA000962F872FB801092F182F061B170B98012F5F3F4F02E010E0A1018BEC92E00E944A
:204CC000C60E3FEF231A330AAECF82E391E09093CC028093CB028091EA029091EB02009792
:204CE00011F00C942C2808958F929F92AF92BF92CF92DF92EF92FF92CF93DF93EC016881B0
:204D000079818A819B81611571058105910521F464E279ED8BE597E02DE133EF41E050E041
:204D20000E94182749015A019B01AC01A7EAB1E40E9437276B017C01ACEEB4EFA50194011D
:204D40000E944527C60ED71EE81EF91EF7FE06C081E0C81AD108E10880E8F80AC882D98290
:204D6000EA82FB82C701B6019F77DF91CF91FF90EF90DF90CF90BF90AF909F908F90089590
:204D80008F929F92AF92BF92CF92DF92EF92FF92609100017091010180910201909103011D
:204DA000611571058105910521F464E279ED8BE597E02DE133EF41E050E00E941827490197
:204DC0005A019B01AC01A7EAB1E40E9437276B017C01ACEEB4EFA50194010E944527C60EC6
:204DE000D71EE81EF91EF7FE06C081E0C81AD108E10880E8F80AC0920001D0920101E0924E
:204E00000201F0920301C701B6019F77FF90EF90DF90CF90BF90AF909F908F90089560932C
:204E200000017093010180930201909303010895052E97FB1EF400940E942F2757FD07D004
:204E40000E944A2707FC03D04EF40C942F2750954095309521953F4F4F4F5F4F0895909560
:204E60008095709561957F4F8F4F9F4F08950E946C27A59F900DB49F900DA49F800D911D67
:204E800011240895B7FF0C9437270E943727821B930B0895A1E21A2EAA1BBB1BFD010DC083
:204EA000AA1FBB1FEE1FFF1FA217B307E407F50720F0A21BB30BE40BF50B661F771F881F8E
:204EC000991F1A9469F760957095809590959B01AC01BD01CF010895A29FB001B39FC0015F
:204EE000A39F700D811D1124911DB29F700D811D1124911D08950E946C27332312F48A1B50
:204F00009B0B0C9485270E946C27B7FF0895821B930B0895EE0FFF1F0590F491E02D099460
:204F20000F931F93CF93DF938230910510F482E090E0E0910D03F0910E0330E020E0B0E078
:204F4000A0E0309799F42115310509F44AC0281B390B24303105D8F58A819B816115710519
:204F600089F1FB0193838283FE0111C0408151810281138148175907E0F04817590799F44B
:204F8000109761F012960C93129713961C933296CF01DF91CF911F910F91089500930D03D9
:204FA00010930E03F4CF2115310551F04217530738F0A901DB019A01BD01DF01F801C1CFAA
:204FC000EF01F9CF90930E0380930D03CDCFFE01E20FF31F819391932250310939832883D9
:204FE000D7CF20910B0330910C03232B41F4209106013091070130930C0320930B03209134
:205000000401309105012115310541F42DB73EB74091080150910901241B350BE0910B0387
:20502000F0910C03E217F307A0F42E1B3F0B2817390778F0AC014E5F5F4F2417350748F028
:205040004E0F5F1F50930C0340930B03819391939FCFF0E0E0E09CCFCF93DF930097E9F0BD
:20506000FC01329713821282A0910D03B0910E03ED0130E020E01097A1F420813181820F90
:20508000931F20910B0330910C032817390709F061C0F0930C03E0930B03DF91CF910895B6
:2050A000EA01CE17DF07E8F54A815B819E0141155105B1F7E901FB83EA8349915991C40F57
:2050C000D51FEC17FD0761F4808191810296840F951FE90199838883828193819B838A833B
:2050E000F0E0E0E012968D919C9113970097B9F52D913C911197CD010296820F931F2091B1
:205100000B0330910C032817390739F6309751F510920E0310920D03B0930C03A0930B03FE
:20512000BCCFD383C28340815181840F951FC817D90761F44E5F5F4F88819981480F591F0E
:20514000518340838A819B81938382832115310509F0B0CFF0930E03E0930D039ECFFD0110
:20516000DC01C0CF13821282D7CF81E090E0F8940C94C128DC0101C06D9341505040E0F778
:20518000089515E0CCE7D5E004C0FE010E948A272196CD37D107C9F7F894FFCF0100000051
:2051A00000000F038000000000008D06ED051A06DA064B0629063D0600000000721245123A
:2051C0003C16A7053E122B121C1200000000390CED053C16A2114409A705B90FB60ED20E75
:2051E000C60EF510A705FF090016B408FD08FF0DE20D6A0D0B0D0D0A0000FFFFFFFFFFFFB0
:20520000FFFFFFFFFFFFFFFFFFFFFFFFFFFFFFFFFFFFFFFFFFFFFFFFFFFFFFFFFFFFFFFFAE
:20522000FFFFFFFFFFFFFFFFFFFFFFFFFFFFFFFFFFFFFFFFFFFFFFFFFFFFFFFFFFFFFFFF8E
:20524000FFFFFFFFFFFFFFFFFFFFFFFFFFFFFFFFFFFFFFFFFFFFFFFFFFFFFFFFFFFFFFFF6E
:20526000FFFFFFFFFFFFFFFFFFFFFFFFFFFFFFFFFFFFFFFFFFFFFFFFFFFFFFFFFFFFFFFF4E
:207800000C94343C0C94513C0C94513C0C94513C0C94513C0C94513C0C94513C0C94513C1D
:207820000C94513C0C94513C0C94513C0C94513C0C94513C0C94513C0C94513C0C94513CE0
:207840000C94513C0C94513C0C94513C0C94513C0C94513C0C94513C0C94513C0C94513CC0
:207860000C94513C0C94513C11241FBECFEFD8E0DEBFCDBF11E0A0E0B1E0ECE9FFE702C07E
:2078800005900D92A230B107D9F712E0A2E0B1E001C01D92AD30B107E1F70E942D3D0C94CC
:2078A000CC3F0C94003C982F9595959595959595905D8F708A307CF0282F295A8091C000B5
:2078C00085FFFCCF9093C6008091C00085FFFCCF2093C6000895282F205DF0CF982F8091CF
:2078E000C00085FFFCCF9093C6000895EF92FF920F931F93EE24FF2487018091C00087FD7B
:2079000017C00894E11CF11C011D111D81E4E81682E4F8068FE0080780E0180770F3E09106
:207920000401F091050109958091C00087FFE9CF8091C6001F910F91FF90EF9008950E949A
:20794000763C982F8091C00085FFFCCF9093C60091362CF490330CF09053892F08959755DB
:20796000892F08951F930E949F3C182F0E949F3C1295107F810F1F9108951F93182F882308
:2079800021F00E94763C1150E1F71F9108951F93182F0E94763C803249F0809103018F5FC1
:2079A000809303018530C1F01F9108958091C00085FFFCCF84E18093C6008091C00085FF4A
:2079C000FCCF1093C6008091C00085FFFCCF80E18093C6001F910895E0910401F0910501CF
:2079E00009951F9108950E94763C803241F0809103018F5F80930301853081F00895809177
:207A0000C00085FFFCCF84E18093C6008091C00085FFFCCF80E18093C6000895E0910401AC
:207A2000F09105010995089540E951E08823A1F02D9A28EE33E0FA013197F1F72150304072
:207A4000D1F72D9828EE33E0FA013197F1F721503040D1F7815061F708953F924F925F92B3
:207A60006F927F928F929F92AF92BF92CF92DF92EF92FF920F931F93CF93DF93000080E1A3
:207A80008093C4001092C50088E18093C10086E08093C2005098589A259A81E00E94143D43
:207AA00024E1F22E9EE1E92E85E9D82E0FE0C02E10E1B12EAA24A394B1E49B2EA6E58A2E44
:207AC000F2E57F2EE0E26E2E79E4572E63E5462E50E5352E0E94763C8033B1F18133B9F187
:207AE000803409F46FC0813409F476C0823409F485C0853409F488C0803531F1823521F128
:207B0000813511F1853509F485C0863509F48DC0843609F496C0843709F403C1853709F46A
:207B200072C1863709F466C0809103018F5F80930301853079F6E0910401F0910501099559
:207B40000E94763C803351F60E94F33CC3CF0E94763C803249F78091C00085FFFCCFF0928C
:207B6000C6008091C00085FFFCCF9092C6008091C00085FFFCCF8092C6008091C00085FFEA
:207B8000FCCF7092C6008091C00085FFFCCF6092C6008091C00085FFFCCF5092C6008091A1
:207BA000C00085FFFCCF4092C6008091C00085FFFCCF3092C6008091C00085FFFCCFB09214
:207BC000C60088CF0E94763C863808F4BDCF0E94763C0E94F33C7ECF0E94763C803809F473
:207BE0009CC0813809F40BC1823809F43CC1883909F48FC080E00E94C73C6CCF84E10E949F
:207C0000BD3C0E94F33C66CF85E00E94BD3C0E94F33C60CF0E94763C809306010E94763CA3
:207C2000809307010E94F33C55CF0E94763C803309F41DC183E00E94BD3C80E00E94C73C4F
:207C400049CF0E94763C809309020E94763C8093080280910C028E7F80930C020E94763C88
:207C6000853409F415C18091080290910902892B89F000E010E00E94763CF801E85FFE4F53
:207C800080830F5F1F4F80910802909109020817190788F30E94763C803209F045CF8091E0
:207CA0000C0280FF01C16091060170910701660F771F7093070160930601A0910802B091E8
:207CC00009021097C9F0E8E0F1E09B01AD014E0F5F1FF999FECF32BD21BD819180BDFA9A6C
:207CE000F99A2F5F3F4FE417F50799F76A0F7B1F70930701609306018091C00085FFFCCF16
:207D0000F092C6008091C00085FFFCCFB092C600E1CE83E00E94C73CDDCE82E00E94C73C8A
:207D2000D9CE0E94763C809309020E94763C809308028091060190910701880F991F909306
:207D40000701809306010E94763C853409F4A6C080910C028E7F80930C020E94763C80323E
:207D600009F0B8CE8091C00085FFFCCFF092C600609108027091090261157105B9F140E05F
:207D800050E080910C02A82FA170B82FB27011C0BB2309F45CC0E0910601F0910701319613
:207DA000F0930701E09306014F5F5F4F46175707E8F4AA2369F3F999FECF209106013091CA
:207DC000070132BD21BDF89A90B58091C00085FFFCCF9093C6002F5F3F4F30930701209354
:207DE00006014F5F5F4F4617570718F38091C00085FDE5CE8091C00085FFF8CFE0CE81E029
:207E00000E94C73C67CE0E94763C803209F08CCE8091C00085FFFCCFF092C6008091C000F6
:207E200085FFFCCFE092C6008091C00085FFFCCFD092C6008091C00085FFFCCFC092C6003B
:207E40008091C00085FFFCCFB092C60043CEE0910601F091070194918091C00085FFFCCFA3
:207E60009093C6009CCF80E10E94C73C33CE0E94763C0E94763C182F0E94763C112309F433
:207E800083C0113009F484C08FE00E94C73C22CE80910C02816080930C02E5CE80910C0226
:207EA000816080930C0259CF809107018823880F880B8A2180930B0280910601909107019E
:207EC000880F991F90930701809306018091080280FF09C0809108029091090201969093AA
:207EE000090280930802F894F999FECF1127E0910601F0910701C8E0D1E0809108029091A1
:207F00000902103091F40091570001700130D9F303E000935700E895009157000170013067
:207F2000D9F301E100935700E895099019900091570001700130D9F301E000935700E8954C
:207F40001395103498F011270091570001700130D9F305E000935700E8950091570001707A
:207F60000130D9F301E100935700E8953296029709F0C7CF103011F00296E5CF11248091F8
:1E7F8000C00085FFB9CEBCCE8EE10E94C73CA2CD85E90E94C73C9ECDF894FFCF8000B3
:00000001FF
